{
  "_format": "hh3-artifact-1",
  "contractName": "PropertyDeed",
  "sourceName": "contracts/propertydeed.sol",
  "abi": [
    {
      "inputs": [],
      "stateMutability": "nonpayable",
      "type": "constructor"
    },
    {
      "inputs": [
        {
          "internalType": "address",
          "name": "sender",
          "type": "address"
        },
        {
          "internalType": "uint256",
          "name": "tokenId",
          "type": "uint256"
        },
        {
          "internalType": "address",
          "name": "owner",
          "type": "address"
        }
      ],
      "name": "ERC721IncorrectOwner",
      "type": "error"
    },
    {
      "inputs": [
        {
          "internalType": "address",
          "name": "operator",
          "type": "address"
        },
        {
          "internalType": "uint256",
          "name": "tokenId",
          "type": "uint256"
        }
      ],
      "name": "ERC721InsufficientApproval",
      "type": "error"
    },
    {
      "inputs": [
        {
          "internalType": "address",
          "name": "approver",
          "type": "address"
        }
      ],
      "name": "ERC721InvalidApprover",
      "type": "error"
    },
    {
      "inputs": [
        {
          "internalType": "address",
          "name": "operator",
          "type": "address"
        }
      ],
      "name": "ERC721InvalidOperator",
      "type": "error"
    },
    {
      "inputs": [
        {
          "internalType": "address",
          "name": "owner",
          "type": "address"
        }
      ],
      "name": "ERC721InvalidOwner",
      "type": "error"
    },
    {
      "inputs": [
        {
          "internalType": "address",
          "name": "receiver",
          "type": "address"
        }
      ],
      "name": "ERC721InvalidReceiver",
      "type": "error"
    },
    {
      "inputs": [
        {
          "internalType": "address",
          "name": "sender",
          "type": "address"
        }
      ],
      "name": "ERC721InvalidSender",
      "type": "error"
    },
    {
      "inputs": [
        {
          "internalType": "uint256",
          "name": "tokenId",
          "type": "uint256"
        }
      ],
      "name": "ERC721NonexistentToken",
      "type": "error"
    },
    {
      "inputs": [
        {
          "internalType": "address",
          "name": "owner",
          "type": "address"
        }
      ],
      "name": "OwnableInvalidOwner",
      "type": "error"
    },
    {
      "inputs": [
        {
          "internalType": "address",
          "name": "account",
          "type": "address"
        }
      ],
      "name": "OwnableUnauthorizedAccount",
      "type": "error"
    },
    {
      "anonymous": false,
      "inputs": [
        {
          "indexed": true,
          "internalType": "address",
          "name": "owner",
          "type": "address"
        },
        {
          "indexed": true,
          "internalType": "address",
          "name": "approved",
          "type": "address"
        },
        {
          "indexed": true,
          "internalType": "uint256",
          "name": "tokenId",
          "type": "uint256"
        }
      ],
      "name": "Approval",
      "type": "event"
    },
    {
      "anonymous": false,
      "inputs": [
        {
          "indexed": true,
          "internalType": "address",
          "name": "owner",
          "type": "address"
        },
        {
          "indexed": true,
          "internalType": "address",
          "name": "operator",
          "type": "address"
        },
        {
          "indexed": false,
          "internalType": "bool",
          "name": "approved",
          "type": "bool"
        }
      ],
      "name": "ApprovalForAll",
      "type": "event"
    },
    {
      "anonymous": false,
      "inputs": [
        {
          "indexed": false,
          "internalType": "uint256",
          "name": "_fromTokenId",
          "type": "uint256"
        },
        {
          "indexed": false,
          "internalType": "uint256",
          "name": "_toTokenId",
          "type": "uint256"
        }
      ],
      "name": "BatchMetadataUpdate",
      "type": "event"
    },
    {
      "anonymous": false,
      "inputs": [
        {
          "indexed": false,
          "internalType": "uint256",
          "name": "_tokenId",
          "type": "uint256"
        }
      ],
      "name": "MetadataUpdate",
      "type": "event"
    },
    {
      "anonymous": false,
      "inputs": [
        {
          "indexed": true,
          "internalType": "address",
          "name": "previousOwner",
          "type": "address"
        },
        {
          "indexed": true,
          "internalType": "address",
          "name": "newOwner",
          "type": "address"
        }
      ],
      "name": "OwnershipTransferred",
      "type": "event"
    },
    {
      "anonymous": false,
      "inputs": [
        {
          "indexed": true,
          "internalType": "address",
          "name": "from",
          "type": "address"
        },
        {
          "indexed": true,
          "internalType": "address",
          "name": "to",
          "type": "address"
        },
        {
          "indexed": true,
          "internalType": "uint256",
          "name": "tokenId",
          "type": "uint256"
        }
      ],
      "name": "Transfer",
      "type": "event"
    },
    {
      "inputs": [],
      "name": "_tokenIds",
      "outputs": [
        {
          "internalType": "uint256",
          "name": "",
          "type": "uint256"
        }
      ],
      "stateMutability": "view",
      "type": "function"
    },
    {
      "inputs": [
        {
          "internalType": "address",
          "name": "to",
          "type": "address"
        },
        {
          "internalType": "uint256",
          "name": "tokenId",
          "type": "uint256"
        }
      ],
      "name": "approve",
      "outputs": [],
      "stateMutability": "nonpayable",
      "type": "function"
    },
    {
      "inputs": [
        {
          "internalType": "address",
          "name": "owner",
          "type": "address"
        }
      ],
      "name": "balanceOf",
      "outputs": [
        {
          "internalType": "uint256",
          "name": "",
          "type": "uint256"
        }
      ],
      "stateMutability": "view",
      "type": "function"
    },
    {
      "inputs": [
        {
          "internalType": "uint256",
          "name": "tokenId",
          "type": "uint256"
        }
      ],
      "name": "getApproved",
      "outputs": [
        {
          "internalType": "address",
          "name": "",
          "type": "address"
        }
      ],
      "stateMutability": "view",
      "type": "function"
    },
    {
      "inputs": [],
      "name": "getCurrentTokenId",
      "outputs": [
        {
          "internalType": "uint256",
          "name": "",
          "type": "uint256"
        }
      ],
      "stateMutability": "view",
      "type": "function"
    },
    {
      "inputs": [
        {
          "internalType": "address",
          "name": "owner",
          "type": "address"
        },
        {
          "internalType": "address",
          "name": "operator",
          "type": "address"
        }
      ],
      "name": "isApprovedForAll",
      "outputs": [
        {
          "internalType": "bool",
          "name": "",
          "type": "bool"
        }
      ],
      "stateMutability": "view",
      "type": "function"
    },
    {
      "inputs": [
        {
          "internalType": "address",
          "name": "to",
          "type": "address"
        },
        {
          "internalType": "string",
          "name": "tokenURI",
          "type": "string"
        }
      ],
      "name": "mintDeed",
      "outputs": [
        {
          "internalType": "uint256",
          "name": "",
          "type": "uint256"
        }
      ],
      "stateMutability": "nonpayable",
      "type": "function"
    },
    {
      "inputs": [],
      "name": "name",
      "outputs": [
        {
          "internalType": "string",
          "name": "",
          "type": "string"
        }
      ],
      "stateMutability": "view",
      "type": "function"
    },
    {
      "inputs": [],
      "name": "owner",
      "outputs": [
        {
          "internalType": "address",
          "name": "",
          "type": "address"
        }
      ],
      "stateMutability": "view",
      "type": "function"
    },
    {
      "inputs": [
        {
          "internalType": "uint256",
          "name": "tokenId",
          "type": "uint256"
        }
      ],
      "name": "ownerOf",
      "outputs": [
        {
          "internalType": "address",
          "name": "",
          "type": "address"
        }
      ],
      "stateMutability": "view",
      "type": "function"
    },
    {
      "inputs": [],
      "name": "renounceOwnership",
      "outputs": [],
      "stateMutability": "nonpayable",
      "type": "function"
    },
    {
      "inputs": [
        {
          "internalType": "address",
          "name": "from",
          "type": "address"
        },
        {
          "internalType": "address",
          "name": "to",
          "type": "address"
        },
        {
          "internalType": "uint256",
          "name": "tokenId",
          "type": "uint256"
        }
      ],
      "name": "safeTransferFrom",
      "outputs": [],
      "stateMutability": "nonpayable",
      "type": "function"
    },
    {
      "inputs": [
        {
          "internalType": "address",
          "name": "from",
          "type": "address"
        },
        {
          "internalType": "address",
          "name": "to",
          "type": "address"
        },
        {
          "internalType": "uint256",
          "name": "tokenId",
          "type": "uint256"
        },
        {
          "internalType": "bytes",
          "name": "data",
          "type": "bytes"
        }
      ],
      "name": "safeTransferFrom",
      "outputs": [],
      "stateMutability": "nonpayable",
      "type": "function"
    },
    {
      "inputs": [
        {
          "internalType": "address",
          "name": "operator",
          "type": "address"
        },
        {
          "internalType": "bool",
          "name": "approved",
          "type": "bool"
        }
      ],
      "name": "setApprovalForAll",
      "outputs": [],
      "stateMutability": "nonpayable",
      "type": "function"
    },
    {
      "inputs": [
        {
          "internalType": "bytes4",
          "name": "interfaceId",
          "type": "bytes4"
        }
      ],
      "name": "supportsInterface",
      "outputs": [
        {
          "internalType": "bool",
          "name": "",
          "type": "bool"
        }
      ],
      "stateMutability": "view",
      "type": "function"
    },
    {
      "inputs": [],
      "name": "symbol",
      "outputs": [
        {
          "internalType": "string",
          "name": "",
          "type": "string"
        }
      ],
      "stateMutability": "view",
      "type": "function"
    },
    {
      "inputs": [
        {
          "internalType": "uint256",
          "name": "tokenId",
          "type": "uint256"
        }
      ],
      "name": "tokenURI",
      "outputs": [
        {
          "internalType": "string",
          "name": "",
          "type": "string"
        }
      ],
      "stateMutability": "view",
      "type": "function"
    },
    {
      "inputs": [
        {
          "internalType": "address",
          "name": "from",
          "type": "address"
        },
        {
          "internalType": "address",
          "name": "to",
          "type": "address"
        },
        {
          "internalType": "uint256",
          "name": "tokenId",
          "type": "uint256"
        }
      ],
      "name": "transferFrom",
      "outputs": [],
      "stateMutability": "nonpayable",
      "type": "function"
    },
    {
      "inputs": [
        {
          "internalType": "address",
          "name": "newOwner",
          "type": "address"
        }
      ],
      "name": "transferOwnership",
      "outputs": [],
      "stateMutability": "nonpayable",
      "type": "function"
    }
  ],
  "bytecode": "0x608060405234801561001057600080fd5b50336040518060400160405280600c81526020016b141c9bdc195c9d1e5119595960a21b81525060405180604001604052806005815260200164141111515160da1b815250816000908161006491906101a2565b50600161007182826101a2565b5050506001600160a01b0381166100a257604051631e4fbdf760e01b81526000600482015260240160405180910390fd5b6100ab816100b1565b50610260565b600780546001600160a01b038381166001600160a01b0319831681179093556040519116919082907f8be0079c531659141344cd1fd0a4f28419497f9722a3daafe3b4186f6b6457e090600090a35050565b634e487b7160e01b600052604160045260246000fd5b600181811c9082168061012d57607f821691505b60208210810361014d57634e487b7160e01b600052602260045260246000fd5b50919050565b601f82111561019d57806000526020600020601f840160051c8101602085101561017a5750805b601f840160051c820191505b8181101561019a5760008155600101610186565b50505b505050565b81516001600160401b038111156101bb576101bb610103565b6101cf816101c98454610119565b84610153565b6020601f82116001811461020357600083156101eb5750848201515b600019600385901b1c1916600184901b17845561019a565b600084815260208120601f198516915b828110156102335787850151825560209485019460019092019101610213565b50848210156102515786840151600019600387901b60f8161c191681555b50505050600190811b01905550565b61144d8061026f6000396000f3fe608060405234801561001057600080fd5b50600436106101215760003560e01c806370a08231116100ad578063aa46a40011610071578063aa46a40014610248578063b88d4fde14610251578063c87b56dd14610264578063e985e9c514610277578063f2fde38b1461028a57600080fd5b806370a0823114610201578063715018a6146102145780638da5cb5b1461021c57806395d89b411461022d578063a22cb4651461023557600080fd5b806323b872dd116100f457806323b872dd146101a357806342842e0e146101b657806356189236146101c95780635e99e080146101db5780636352211e146101ee57600080fd5b806301ffc9a71461012657806306fdde031461014e578063081812fc14610163578063095ea7b31461018e575b600080fd5b610139610134366004610f19565b61029d565b60405190151581526020015b60405180910390f35b6101566102c8565b6040516101459190610f86565b610176610171366004610f99565b61035a565b6040516001600160a01b039091168152602001610145565b6101a161019c366004610fce565b610383565b005b6101a16101b1366004610ff8565b610392565b6101a16101c4366004610ff8565b610422565b6008545b604051908152602001610145565b6101cd6101e93660046110c5565b610442565b6101766101fc366004610f99565b610482565b6101cd61020f366004611127565b61048d565b6101a16104d5565b6007546001600160a01b0316610176565b6101566104e9565b6101a1610243366004611142565b6104f8565b6101cd60085481565b6101a161025f36600461117e565b610503565b610156610272366004610f99565b61051b565b6101396102853660046111fa565b61062c565b6101a1610298366004611127565b61065a565b60006001600160e01b03198216632483248360e11b14806102c257506102c282610698565b92915050565b6060600080546102d79061122d565b80601f01602080910402602001604051908101604052809291908181526020018280546103039061122d565b80156103505780601f1061032557610100808354040283529160200191610350565b820191906000526020600020905b81548152906001019060200180831161033357829003601f168201915b5050505050905090565b6000610365826106e8565b506000828152600460205260409020546001600160a01b03166102c2565b61038e828233610721565b5050565b6001600160a01b0382166103c157604051633250574960e11b8152600060048201526024015b60405180910390fd5b60006103ce83833361072e565b9050836001600160a01b0316816001600160a01b03161461041c576040516364283d7b60e01b81526001600160a01b03808616600483015260248201849052821660448201526064016103b8565b50505050565b61043d83838360405180602001604052806000815250610503565b505050565b600061044c610827565b60016008600082825461045f9190611267565b90915550506008546104718482610854565b61047b818461086e565b9392505050565b60006102c2826106e8565b60006001600160a01b0382166104b9576040516322718ad960e21b8152600060048201526024016103b8565b506001600160a01b031660009081526003602052604090205490565b6104dd610827565b6104e760006108be565b565b6060600180546102d79061122d565b61038e338383610910565b61050e848484610392565b61041c33858585856109af565b6060610526826106e8565b50600082815260066020526040812080546105409061122d565b80601f016020809104026020016040519081016040528092919081815260200182805461056c9061122d565b80156105b95780601f1061058e576101008083540402835291602001916105b9565b820191906000526020600020905b81548152906001019060200180831161059c57829003601f168201915b5050505050905060006105d760408051602081019091526000815290565b905080516000036105e9575092915050565b81511561061b578082604051602001610603929190611288565b60405160208183030381529060405292505050919050565b61062484610ada565b949350505050565b6001600160a01b03918216600090815260056020908152604080832093909416825291909152205460ff1690565b610662610827565b6001600160a01b03811661068c57604051631e4fbdf760e01b8152600060048201526024016103b8565b610695816108be565b50565b60006001600160e01b031982166380ac58cd60e01b14806106c957506001600160e01b03198216635b5e139f60e01b145b806102c257506301ffc9a760e01b6001600160e01b03198316146102c2565b6000818152600260205260408120546001600160a01b0316806102c257604051637e27328960e01b8152600481018490526024016103b8565b61043d8383836001610b4e565b6000828152600260205260408120546001600160a01b039081169083161561075b5761075b818486610c54565b6001600160a01b0381161561079957610778600085600080610b4e565b6001600160a01b038116600090815260036020526040902080546000190190555b6001600160a01b038516156107c8576001600160a01b0385166000908152600360205260409020805460010190555b60008481526002602052604080822080546001600160a01b0319166001600160a01b0389811691821790925591518793918516917fddf252ad1be2c89b69c2b068fc378daa952ba7f163c4a11628f55a4df523b3ef91a4949350505050565b6007546001600160a01b031633146104e75760405163118cdaa760e01b81523360048201526024016103b8565b61038e828260405180602001604052806000815250610cb8565b600082815260066020526040902061088682826112fe565b506040518281527ff8e1a15aba9398e019f0b49df1a4fde98ee17ae345cb5f6b5e2c27f5033e8ce79060200160405180910390a15050565b600780546001600160a01b038381166001600160a01b0319831681179093556040519116919082907f8be0079c531659141344cd1fd0a4f28419497f9722a3daafe3b4186f6b6457e090600090a35050565b6001600160a01b03821661094257604051630b61174360e31b81526001600160a01b03831660048201526024016103b8565b6001600160a01b03838116600081815260056020908152604080832094871680845294825291829020805460ff191686151590811790915591519182527f17307eab39ab6107e8899845ad3d59bd9653f200f220920489ca2b5937696c31910160405180910390a3505050565b6001600160a01b0383163b15610ad357604051630a85bd0160e11b81526001600160a01b0384169063150b7a02906109f19088908890879087906004016113bd565b6020604051808303816000875af1925050508015610a2c575060408051601f3d908101601f19168201909252610a29918101906113fa565b60015b610a95573d808015610a5a576040519150601f19603f3d011682016040523d82523d6000602084013e610a5f565b606091505b508051600003610a8d57604051633250574960e11b81526001600160a01b03851660048201526024016103b8565b805160208201fd5b6001600160e01b03198116630a85bd0160e11b14610ad157604051633250574960e11b81526001600160a01b03851660048201526024016103b8565b505b5050505050565b6060610ae5826106e8565b506000610afd60408051602081019091526000815290565b90506000815111610b1d576040518060200160405280600081525061047b565b80610b2784610cd0565b604051602001610b38929190611288565b6040516020818303038152906040529392505050565b8080610b6257506001600160a01b03821615155b15610c24576000610b72846106e8565b90506001600160a01b03831615801590610b9e5750826001600160a01b0316816001600160a01b031614155b8015610bb15750610baf818461062c565b155b15610bda5760405163a9fbf51f60e01b81526001600160a01b03841660048201526024016103b8565b8115610c225783856001600160a01b0316826001600160a01b03167f8c5be1e5ebec7d5bd14f71427d1e84f3dd0314c0f7b2291e5b200ac8c7c3b92560405160405180910390a45b505b5050600090815260046020526040902080546001600160a01b0319166001600160a01b0392909216919091179055565b610c5f838383610d63565b61043d576001600160a01b038316610c8d57604051637e27328960e01b8152600481018290526024016103b8565b60405163177e802f60e01b81526001600160a01b0383166004820152602481018290526044016103b8565b610cc28383610dc6565b61043d3360008585856109af565b60606000610cdd83610e2b565b600101905060008167ffffffffffffffff811115610cfd57610cfd611035565b6040519080825280601f01601f191660200182016040528015610d27576020820181803683370190505b5090508181016020015b600019016f181899199a1a9b1b9c1cb0b131b232b360811b600a86061a8153600a8504945084610d3157509392505050565b60006001600160a01b038316158015906106245750826001600160a01b0316846001600160a01b03161480610d9d5750610d9d848461062c565b806106245750506000908152600460205260409020546001600160a01b03908116911614919050565b6001600160a01b038216610df057604051633250574960e11b8152600060048201526024016103b8565b6000610dfe8383600061072e565b90506001600160a01b0381161561043d576040516339e3563760e11b8152600060048201526024016103b8565b60008072184f03e93ff9f4daa797ed6e38ed64bf6a1f0160401b8310610e6a5772184f03e93ff9f4daa797ed6e38ed64bf6a1f0160401b830492506040015b6d04ee2d6d415b85acef81000000008310610e96576d04ee2d6d415b85acef8100000000830492506020015b662386f26fc100008310610eb457662386f26fc10000830492506010015b6305f5e1008310610ecc576305f5e100830492506008015b6127108310610ee057612710830492506004015b60648310610ef2576064830492506002015b600a83106102c25760010192915050565b6001600160e01b03198116811461069557600080fd5b600060208284031215610f2b57600080fd5b813561047b81610f03565b60005b83811015610f51578181015183820152602001610f39565b50506000910152565b60008151808452610f72816020860160208601610f36565b601f01601f19169290920160200192915050565b60208152600061047b6020830184610f5a565b600060208284031215610fab57600080fd5b5035919050565b80356001600160a01b0381168114610fc957600080fd5b919050565b60008060408385031215610fe157600080fd5b610fea83610fb2565b946020939093013593505050565b60008060006060848603121561100d57600080fd5b61101684610fb2565b925061102460208501610fb2565b929592945050506040919091013590565b634e487b7160e01b600052604160045260246000fd5b60008067ffffffffffffffff84111561106657611066611035565b50604051601f19601f85018116603f0116810181811067ffffffffffffffff8211171561109557611095611035565b6040528381529050808284018510156110ad57600080fd5b83836020830137600060208583010152509392505050565b600080604083850312156110d857600080fd5b6110e183610fb2565b9150602083013567ffffffffffffffff8111156110fd57600080fd5b8301601f8101851361110e57600080fd5b61111d8582356020840161104b565b9150509250929050565b60006020828403121561113957600080fd5b61047b82610fb2565b6000806040838503121561115557600080fd5b61115e83610fb2565b91506020830135801515811461117357600080fd5b809150509250929050565b6000806000806080858703121561119457600080fd5b61119d85610fb2565b93506111ab60208601610fb2565b925060408501359150606085013567ffffffffffffffff8111156111ce57600080fd5b8501601f810187136111df57600080fd5b6111ee8782356020840161104b565b91505092959194509250565b6000806040838503121561120d57600080fd5b61121683610fb2565b915061122460208401610fb2565b90509250929050565b600181811c9082168061124157607f821691505b60208210810361126157634e487b7160e01b600052602260045260246000fd5b50919050565b808201808211156102c257634e487b7160e01b600052601160045260246000fd5b6000835161129a818460208801610f36565b8351908301906112ae818360208801610f36565b01949350505050565b601f82111561043d57806000526020600020601f840160051c810160208510156112de5750805b601f840160051c820191505b81811015610ad357600081556001016112ea565b815167ffffffffffffffff81111561131857611318611035565b61132c81611326845461122d565b846112b7565b6020601f82116001811461136057600083156113485750848201515b600019600385901b1c1916600184901b178455610ad3565b600084815260208120601f198516915b828110156113905787850151825560209485019460019092019101611370565b50848210156113ae5786840151600019600387901b60f8161c191681555b50505050600190811b01905550565b6001600160a01b03858116825284166020820152604081018390526080606082018190526000906113f090830184610f5a565b9695505050505050565b60006020828403121561140c57600080fd5b815161047b81610f0356fea26469706673582212204106d17a3bea79a609d1d9054eedd304ee75a4f8990bfebdc39a42ef6ca5b2b164736f6c634300081c0033",
  "linkReferences": {},
  "deployedLinkReferences": {},
  "immutableReferences": {},
  "inputSourceName": "project/contracts/propertydeed.sol",
  "buildInfoId": "solc-0_8_28-4fbb0349698512a8780c8da22bd742c6d0e696e2"
}