{
  "_format": "hh3-artifact-1",
  "contractName": "PropertyEscrow",
  "sourceName": "contracts/contract.sol",
  "abi": [
    {
      "inputs": [
        {
          "internalType": "contract IERC721",
          "name": "_deed",
          "type": "address"
        }
      ],
      "stateMutability": "nonpayable",
      "type": "constructor"
    },
    {
      "inputs": [],
      "name": "ReentrancyGuardReentrantCall",
      "type": "error"
    },
    {
      "anonymous": false,
      "inputs": [
        {
          "indexed": false,
          "internalType": "uint256",
          "name": "propertyId",
          "type": "uint256"
        }
      ],
      "name": "BuyerConfirmed",
      "type": "event"
    },
    {
      "anonymous": false,
      "inputs": [
        {
          "indexed": false,
          "internalType": "uint256",
          "name": "propertyId",
          "type": "uint256"
        },
        {
          "indexed": false,
          "internalType": "address",
          "name": "buyer",
          "type": "address"
        },
        {
          "indexed": false,
          "internalType": "uint256",
          "name": "price",
          "type": "uint256"
        }
      ],
      "name": "BuyerDeposit",
      "type": "event"
    },
    {
      "anonymous": false,
      "inputs": [
        {
          "indexed": false,
          "internalType": "uint256",
          "name": "propertyId",
          "type": "uint256"
        }
      ],
      "name": "Cancelled",
      "type": "event"
    },
    {
      "anonymous": false,
      "inputs": [
        {
          "indexed": false,
          "internalType": "uint256",
          "name": "propertyId",
          "type": "uint256"
        },
        {
          "indexed": false,
          "internalType": "address",
          "name": "seller",
          "type": "address"
        },
        {
          "indexed": false,
          "internalType": "address",
          "name": "buyer",
          "type": "address"
        },
        {
          "indexed": false,
          "internalType": "uint256",
          "name": "price",
          "type": "uint256"
        }
      ],
      "name": "Finalized",
      "type": "event"
    },
    {
      "anonymous": false,
      "inputs": [
        {
          "indexed": false,
          "internalType": "uint256",
          "name": "propertyId",
          "type": "uint256"
        },
        {
          "indexed": false,
          "internalType": "address",
          "name": "seller",
          "type": "address"
        },
        {
          "indexed": false,
          "internalType": "uint256",
          "name": "price",
          "type": "uint256"
        },
        {
          "indexed": false,
          "internalType": "uint256",
          "name": "deadline",
          "type": "uint256"
        }
      ],
      "name": "Listed",
      "type": "event"
    },
    {
      "anonymous": false,
      "inputs": [
        {
          "indexed": false,
          "internalType": "uint256",
          "name": "propertyId",
          "type": "uint256"
        },
        {
          "indexed": false,
          "internalType": "address",
          "name": "from",
          "type": "address"
        },
        {
          "indexed": false,
          "internalType": "address",
          "name": "to",
          "type": "address"
        }
      ],
      "name": "OwnershipTransferred",
      "type": "event"
    },
    {
      "anonymous": false,
      "inputs": [
        {
          "indexed": false,
          "internalType": "uint256",
          "name": "propertyId",
          "type": "uint256"
        }
      ],
      "name": "Refunded",
      "type": "event"
    },
    {
      "anonymous": false,
      "inputs": [
        {
          "indexed": false,
          "internalType": "uint256",
          "name": "propertyId",
          "type": "uint256"
        }
      ],
      "name": "SellerConfirmed",
      "type": "event"
    },
    {
      "inputs": [
        {
          "internalType": "uint256",
          "name": "propertyId",
          "type": "uint256"
        }
      ],
      "name": "buyerConfirm",
      "outputs": [],
      "stateMutability": "nonpayable",
      "type": "function"
    },
    {
      "inputs": [
        {
          "internalType": "uint256",
          "name": "propertyId",
          "type": "uint256"
        }
      ],
      "name": "cancel",
      "outputs": [],
      "stateMutability": "nonpayable",
      "type": "function"
    },
    {
      "inputs": [
        {
          "internalType": "uint256",
          "name": "",
          "type": "uint256"
        }
      ],
      "name": "deals",
      "outputs": [
        {
          "internalType": "address",
          "name": "seller",
          "type": "address"
        },
        {
          "internalType": "address",
          "name": "buyer",
          "type": "address"
        },
        {
          "internalType": "uint256",
          "name": "price",
          "type": "uint256"
        },
        {
          "internalType": "uint256",
          "name": "deadline",
          "type": "uint256"
        },
        {
          "internalType": "bool",
          "name": "buyerConfirmed",
          "type": "bool"
        },
        {
          "internalType": "bool",
          "name": "sellerConfirmed",
          "type": "bool"
        },
        {
          "internalType": "enum PropertyEscrow.Status",
          "name": "status",
          "type": "uint8"
        }
      ],
      "stateMutability": "view",
      "type": "function"
    },
    {
      "inputs": [],
      "name": "deed",
      "outputs": [
        {
          "internalType": "contract IERC721",
          "name": "",
          "type": "address"
        }
      ],
      "stateMutability": "view",
      "type": "function"
    },
    {
      "inputs": [
        {
          "internalType": "uint256",
          "name": "propertyId",
          "type": "uint256"
        }
      ],
      "name": "deposit",
      "outputs": [],
      "stateMutability": "payable",
      "type": "function"
    },
    {
      "inputs": [],
      "name": "depositEarnest",
      "outputs": [],
      "stateMutability": "payable",
      "type": "function"
    },
    {
      "inputs": [
        {
          "internalType": "uint256",
          "name": "propertyId",
          "type": "uint256"
        }
      ],
      "name": "finalize",
      "outputs": [],
      "stateMutability": "nonpayable",
      "type": "function"
    },
    {
      "inputs": [
        {
          "internalType": "uint256",
          "name": "propertyId",
          "type": "uint256"
        },
        {
          "internalType": "uint256",
          "name": "price",
          "type": "uint256"
        },
        {
          "internalType": "uint256",
          "name": "deadline",
          "type": "uint256"
        }
      ],
      "name": "list",
      "outputs": [],
      "stateMutability": "nonpayable",
      "type": "function"
    },
    {
      "inputs": [
        {
          "internalType": "uint256",
          "name": "propertyId",
          "type": "uint256"
        }
      ],
      "name": "refund",
      "outputs": [],
      "stateMutability": "nonpayable",
      "type": "function"
    },
    {
      "inputs": [
        {
          "internalType": "uint256",
          "name": "propertyId",
          "type": "uint256"
        }
      ],
      "name": "sellerConfirm",
      "outputs": [],
      "stateMutability": "nonpayable",
      "type": "function"
    }
  ],
  "bytecode": "0x60a060405234801561001057600080fd5b5060405161107938038061107983398101604081905261002f91610045565b60016000556001600160a01b0316608052610075565b60006020828403121561005757600080fd5b81516001600160a01b038116811461006e57600080fd5b9392505050565b608051610fcd6100ac6000396000818161020e01528181610334015281816105f8015281816108c20152610ad90152610fcd6000f3fe6080604052600436106100915760003560e01c8063459934ec11610059578063459934ec146101a15780635af41d61146101c1578063888487cd146101c9578063b6b55f25146101e9578063c2f1e6bd146101fc57600080fd5b806303988f841461009657806305261aea1461011f57806319aeb49014610141578063278ecde11461016157806340e58ee514610181575b600080fd5b3480156100a257600080fd5b506101036100b1366004610eb2565b6001602081905260009182526040909120805491810154600282015460038301546004909301546001600160a01b039485169490921692909160ff808216916101008104821691620100009091041687565b6040516101169796959493929190610ee1565b60405180910390f35b34801561012b57600080fd5b5061013f61013a366004610eb2565b610248565b005b34801561014d57600080fd5b5061013f61015c366004610f47565b6104f7565b34801561016d57600080fd5b5061013f61017c366004610eb2565b61078a565b34801561018d57600080fd5b5061013f61019c366004610eb2565b6109f7565b3480156101ad57600080fd5b5061013f6101bc366004610eb2565b610b82565b61013f610c4d565b3480156101d557600080fd5b5061013f6101e4366004610eb2565b610c8d565b61013f6101f7366004610eb2565b610d5f565b34801561020857600080fd5b506102307f000000000000000000000000000000000000000000000000000000000000000081565b6040516001600160a01b039091168152602001610116565b610250610e88565b60008181526001602052604090206005600482015462010000900460ff16600881111561027f5761027f610ecb565b146102c65760405162461bcd60e51b8152602060048201526012602482015271139bdd08189bdd1a0818dbdb999a5c9b595960721b60448201526064015b60405180910390fd5b80600301544211156103045760405162461bcd60e51b8152602060048201526007602482015266115e1c1a5c995960ca1b60448201526064016102bd565b6004818101805462ff00001916620600001790556001820154604051632142170760e11b81526001600160a01b037f00000000000000000000000000000000000000000000000000000000000000008116936342842e0e9361036e93309390911691889101610f73565b600060405180830381600087803b15801561038857600080fd5b505af115801561039c573d6000803e3d6000fd5b505082546002840154604051600094506001600160a01b039092169250908381818185875af1925050503d80600081146103f2576040519150601f19603f3d011682016040523d82523d6000602084013e6103f7565b606091505b50509050806104395760405162461bcd60e51b815260206004820152600e60248201526d14185e5b595b9d0819985a5b195960921b60448201526064016102bd565b815460018301546002840154604080518781526001600160a01b03948516602082015293909216838301526060830152517fbab9b8cf33aeb37546eb59bbfc398d72030e13c66fb2cacd48a0b2a77b1ec46c9181900360800190a181546001830154604080518681526001600160a01b03938416602082015292909116908201527f16b85f49bf01212961345d3016c9a531894accf62eb7680f2045d79185cc0ec0906060015b60405180910390a150506104f46001600055565b50565b600082116105385760405162461bcd60e51b815260206004820152600e60248201526d141c9a58d9481c995c5d5a5c995960921b60448201526064016102bd565b4281116105765760405162461bcd60e51b815260206004820152600c60248201526b42616420646561646c696e6560a01b60448201526064016102bd565b6000808481526001602052604090206004015462010000900460ff1660088111156105a3576105a3610ecb565b146105e15760405162461bcd60e51b815260206004820152600e60248201526d105b1c9958591e481b1a5cdd195960921b60448201526064016102bd565b6040516323b872dd60e01b81526001600160a01b037f000000000000000000000000000000000000000000000000000000000000000016906323b872dd9061063190339030908890600401610f73565b600060405180830381600087803b15801561064b57600080fd5b505af115801561065f573d6000803e3d6000fd5b50506040805160e08101825233815260006020808301828152838501898152606085018981526080860185815260a08701868152600160c089018181528f89529681905298909620875181546001600160a01b039182166001600160a01b0319918216178355955199820180549a90911699909516989098179093559051600287015551600386015551600485018054935115156101000261ff00199215159290921661ffff1990941693909317178083559051929550929350909162ff000019166201000083600881111561073757610737610ecb565b02179055505060408051858152336020820152908101849052606081018390527f98868c46d49b200d82c273c9f28d73265826ca6567690262736450563dfff64c915060800160405180910390a1505050565b610792610e88565b6000818152600160205260409020600381015442116107e55760405162461bcd60e51b815260206004820152600f60248201526e139bdd08195e1c1a5c9959081e595d608a1b60448201526064016102bd565b6002600482015462010000900460ff16600881111561080657610806610ecb565b148061083057506003600482015462010000900460ff16600881111561082e5761082e610ecb565b145b80610858575060048082015462010000900460ff16600881111561085657610856610ecb565b145b6108955760405162461bcd60e51b815260206004820152600e60248201526d4e6f7420726566756e6461626c6560901b60448201526064016102bd565b6004818101805462ff00001916620800001790558154604051632142170760e11b81526001600160a01b037f00000000000000000000000000000000000000000000000000000000000000008116936342842e0e936108fc93309390911691889101610f73565b600060405180830381600087803b15801561091657600080fd5b505af115801561092a573d6000803e3d6000fd5b50505050600181015460028201546040516000926001600160a01b031691908381818185875af1925050503d8060008114610981576040519150601f19603f3d011682016040523d82523d6000602084013e610986565b606091505b50509050806109c75760405162461bcd60e51b815260206004820152600d60248201526c1499599d5b990819985a5b1959609a1b60448201526064016102bd565b6040518381527f3d2a04f53164bedf9a8a46353305d6b2d2261410406df3b41f99ce6489dc003c906020016104e0565b600081815260016020526040902080546001600160a01b03163314610a4b5760405162461bcd60e51b815260206004820152600a6024820152692737ba1039b2b63632b960b11b60448201526064016102bd565b6001600482015462010000900460ff166008811115610a6c57610a6c610ecb565b14610aac5760405162461bcd60e51b815260206004820152601060248201526f43616e27742063616e63656c206e6f7760801b60448201526064016102bd565b6004818101805462ff00001916620700001790558154604051632142170760e11b81526001600160a01b037f00000000000000000000000000000000000000000000000000000000000000008116936342842e0e93610b1393309390911691889101610f73565b600060405180830381600087803b158015610b2d57600080fd5b505af1158015610b41573d6000803e3d6000fd5b505050507fc41d93b8bfbf9fd7cf5bfe271fd649ab6a6fec0ea101c23b82a2a28eca2533a982604051610b7691815260200190565b60405180910390a15050565b600081815260016020526040902080546001600160a01b03163314610bd65760405162461bcd60e51b815260206004820152600a6024820152692737ba1039b2b63632b960b11b60448201526064016102bd565b60048101805461ff001981166101001790915560ff1615610c095760048101805462ff0000191662050000179055610c1d565b60048101805462ff00001916620400001790555b6040518281527fb6f588251195e02ca9c5444664ed2ed1fea9eef529b6bd33441849041bcd955590602001610b76565b60003411610c8b5760405162461bcd60e51b815260206004820152600b60248201526a139bc8115512081cd95b9d60aa1b60448201526064016102bd565b565b6000818152600160208190526040909120908101546001600160a01b03163314610ce55760405162461bcd60e51b81526020600482015260096024820152682737ba10313abcb2b960b91b60448201526064016102bd565b60048101805460ff191660011790819055610100900460ff1615610d1b5760048101805462ff0000191662050000179055610d2f565b60048101805462ff00001916620300001790555b6040518281527fcd651d32f68166996708275e410f7cc693ffbf0dd03463103e75e9b45629e21d90602001610b76565b610d67610e88565b600081815260016020819052604090912090600482015462010000900460ff166008811115610d9857610d98610ecb565b14610dd25760405162461bcd60e51b815260206004820152600a602482015269139bdd081b1a5cdd195960b21b60448201526064016102bd565b80600201543414610e145760405162461bcd60e51b815260206004820152600c60248201526b15dc9bdb99c8185b5bdd5b9d60a21b60448201526064016102bd565b6001810180546001600160a01b0319163390811790915560048201805462ff00001916620200001790556040805184815260208101929092523482820152517f0e59104d78356648ea023bd00b5f93cf6e40a67c3d6878d137423c4a653205309181900360600190a1506104f46001600055565b600260005403610eab57604051633ee5aeb560e01b815260040160405180910390fd5b6002600055565b600060208284031215610ec457600080fd5b5035919050565b634e487b7160e01b600052602160045260246000fd5b6001600160a01b038881168252871660208201526040810186905260608101859052831515608082015282151560a082015260e0810160098310610f3557634e487b7160e01b600052602160045260246000fd5b8260c083015298975050505050505050565b600080600060608486031215610f5c57600080fd5b505081359360208301359350604090920135919050565b6001600160a01b03938416815291909216602082015260408101919091526060019056fea2646970667358221220bfb5c20fc6c3ccc626e284c0521278c4627bb154e8c42be8415f2aea4ebd277364736f6c634300081c0033",
  "linkReferences": {},
  "deployedLinkReferences": {},
  "immutableReferences": {
    "6795": [
      {
        "length": 32,
        "start": 526
      },
      {
        "length": 32,
        "start": 820
      },
      {
        "length": 32,
        "start": 1528
      },
      {
        "length": 32,
        "start": 2242
      },
      {
        "length": 32,
        "start": 2777
      }
    ]
  },
  "inputSourceName": "project/contracts/contract.sol",
  "buildInfoId": "solc-0_8_28-4fbb0349698512a8780c8da22bd742c6d0e696e2"
}